:100000000C945E000C9486000C9486000C94860080
:100010000C9486000C9486000C9486000C94A90322
:100020000C9486000C9486000C9486000C94860038
:100030000C9486000C9486000C9486000C94860028
:100040000C9405040C9486000C9486000C94860095
:100050000C9486000C9486000C9486000C94860008
:100060000C9486000C9486000000000024002700F9
:100070002A0000000008000201000003040700003D
:10008000000000000000010204081020408001026E
:1000900004081020010204081020000000002500C0
:1000A00028002B00040404040404040402020202D5
:1000B000020203030303030302006F0711241FBEA0
:1000C000CFEFD8E0DEBFCDBF12E0A0E0B1E0E4EBBF
:1000D000F2E102C005900D92A630B107D9F722E0F7
:1000E000A6E0B2E001C01D92A833B207E1F710E02C
:1000F000CEE5D0E004C02197FE010E945209CD3523
:10010000D107C9F70E944F040C9458090C940000C1
:10011000AF92BF92CF92DF92EF92FF920F931F9315
:10012000CF93DF936C017B018B01040F151FEB0153
:100130005E01AE18BF08C017D10759F06991D6010A
:10014000ED91FC910190F081E02DC6010995892B7C
:1001500079F7C501DF91CF911F910F91FF90EF903B
:10016000DF90CF90BF90AF90089590E0FC01EE58E3
:10017000FF4F2491FC01EA57FF4F3491FC01EC55ED
:10018000FF4FE491EE23C9F0222339F0233001F12F
:10019000A8F4213019F1223029F1F0E0EE0FFF1F11
:1001A000E656FF4FA591B4918FB7F894EC91611189
:1001B00026C030953E233C938FBF08952730A9F089
:1001C0002830C9F0243049F7809180008F7D03C02A
:1001D000809180008F7780938000DFCF84B58F7708
:1001E00084BDDBCF84B58F7DFBCF8091B0008F774E
:1001F0008093B000D2CF8091B0008F7DF9CF3E2B9D
:10020000DACF9091000189130BC0E8EBF0E0E491A4
:100210009FEF90930001E13049F028F0E23061F067
:1002200060E00C94B50010926E00FACF90916F00D0
:100230009D7F90936F00F4CF909170009D7F90937D
:10024000700091E09093B0009091B100987F94601D
:100250009093B1001092B300E3CFCF93DF9390E07F
:10026000FC01EA57FF4F24918C559F4FFC0184916C
:100270008823D1F090E0880F991FFC01E859FF4FC7
:10028000A591B491FC01E656FF4FC591D49161113F
:100290000EC09FB7F8948C91E22FE0958E238C933B
:1002A0002881E223E8839FBFDF91CF9108958FB724
:1002B000F894EC91E22BEC938FBFF6CF8E508064D4
:1002C00080937C0080917A00806480937A00809192
:1002D0007A0086FDFCCF8091780090917900089596
:1002E0003FB7F89480910B0290910C02A0910D02FF
:1002F000B0910E0226B5A89B05C02F3F19F00196BC
:10030000A11DB11D3FBFBA2FA92F982F8827BC016F
:10031000CD01620F711D811D911D42E0660F771F97
:10032000881F991F4A95D1F708958F929F92AF9297
:10033000BF92CF92DF92EF92FF924B015C010E943D
:1003400070016B017C010E9470016C197D098E099E
:100350009F09683E734081059105A8F321E0821A48
:100360009108A108B10888EEC80E83E0D81EE11CF0
:10037000F11C81149104A104B10429F7FF90EF90BE
:10038000DF90CF90BF90AF909F908F900895089589
:1003900090E080E008958F929F92AF92BF920F936A
:1003A0001F93CF93DF93CDB7DEB7A1970FB6F89425
:1003B000DEBF0FBECDBF19A2423008F44AE08E0165
:1003C0000F5D1F4F842E912CB12CA12CA5019401FF
:1003D0000E943009E62FB901CA01EA3044F5E05D18
:1003E000D801EE938D01232B242B252B79F790E058
:1003F00080E0109769F0FD0101900020E9F7319746
:10040000AF014A1B5B0BBD0180E292E00E948800B5
:10041000A1960FB6F894DEBF0FBECDBFDF91CF918E
:100420001F910F91BF90AF909F908F900895E95CBE
:10043000D7CFFC0101900020E9F73197AF01481BAD
:10044000590BBC0180E292E00C948800CF93DF93BB
:10045000EC0160E08E810E94B50061E08E810E9417
:10046000B50060E08E810E94B5008BE891E00197B5
:10047000F1F7DF91CF910895CF92DF92EF92FF9243
:100480000F931F93CF93DF936C017C0187E0E80EFD
:10049000F11CD0E0C0E0062F10E0B8010C2E02C025
:1004A000759567950A94E2F76170F70181917F0174
:1004B0000E94B5002196C430D10579F7C601DF91BD
:1004C000CF911F910F91FF90EF90DF90CF900C9400
:1004D0002602CF92DF92EF92FF920F931F93CF935A
:1004E000DF93EC01F62E642F8C810E94B5008D8184
:1004F0008F3F19F060E00E94B5000F2D10E08F854E
:1005000084FF25C06E0187E0C80ED11CF12CE12CC0
:10051000B8010E2C02C0759567950A94E2F76170D8
:10052000F60181916F010E94B500FFEFEF1AFF0AFB
:1005300088E0E816F10461F7CE01DF91CF911F91B9
:100540000F91FF90EF90DF90CF900C942602B801AE
:1005500084E0759567958A95E1F7CE010E943C028B
:100560006F2DCE01DF91CF911F910F91FF90EF90F2
:10057000DF90CF900C943C0240E0682F80E292E044
:100580000C94690281E00E94BC028BE39FE1019719
:10059000F1F70895CF93DF93823029F490912F02E1
:1005A000986090932F02809333021092340280E47B
:1005B0008093350280E18093360280E58093370294
:1005C00061E0809124020E942D01809125028F3FDD
:1005D00019F061E00E942D0161E0809126020E94E5
:1005E0002D01C0E2D2E09E012052324080912F02C4
:1005F00084FD0BC084E090E021962817390744F46D
:1006000061E08E810E942D01EECF88E090E0F4CF72
:100610008BE39DE00197F1F760E0809124020E9456
:10062000B50060E0809126020E94B500809125020D
:100630008F3F19F060E00E94B50080912F0284FD89
:1006400034C063E080E292E00E943C02CBE4D6E456
:10065000CE010197F1F763E080E292E00E943C0254
:100660002197F1F763E080E292E00E943C0283E58B
:1006700092E00197F1F762E080E292E00E943C0292
:1006800080912F0280620E94BC0284E0809330023D
:100690008CE00E94BC020E94C20282E08093310280
:1006A00086E0DF91CF910C94BC0280620E94BC0274
:1006B0008BE496E40197F1F780912F0280620E940B
:1006C000BC0283E592E00197F1F780912F028062EE
:1006D0000E94BC02D5CF90913302691710F06FEFE2
:1006E000690FE62FF0E0E05EFD4F9489890F806886
:1006F0000C94BC0241E00E94690281E090E0089500
:10070000CF92DF92EF92FF926C01990FEE08FF08F3
:10071000F7FE16C041E06DE280E292E00E946902BD
:1007200066277727CB016C197D098E099F094AE05E
:100730000E94CB010196FF90EF90DF90CF9008953B
:100740004AE0C701B601FF90EF90DF90CF900C9484
:10075000CB011F920F920FB60F9211242F933F934C
:100760004F935F936F937F938F939F93AF93BF93B9
:10077000EF93FF938091140290911502A0911602BD
:10078000B0911702892B8A2B8B2BD1F190910F02FC
:10079000E0911002F091110280818927808380917D
:1007A000140290911502A0911602B091170218162A
:1007B00019061A061B069CF48091140290911502EA
:1007C000A0911602B09117020197A109B109809377
:1007D000140290931502A0931602B0931702FF9192
:1007E000EF91BF91AF919F918F917F916F915F91A9
:1007F0004F913F912F910F900FBE0F901F90189522
:10080000809100010E940101EACF1F920F920FB662
:100810000F9211242F933F938F939F93AF93BF9386
:100820008091070290910802A0910902B0910A02FA
:100830003091060223E0230F2D3758F50196A11DB4
:10084000B11D209306028093070290930802A093A3
:100850000902B0930A0280910B0290910C02A091C0
:100860000D02B0910E020196A11DB11D80930B02E5
:1008700090930C02A0930D02B0930E02BF91AF9122
:100880009F918F913F912F910F900FBE0F901F90CE
:10089000189526E8230F0296A11DB11DD2CF78949A
:1008A00084B5826084BD84B5816084BD85B5826075
:1008B00085BD85B5816085BD80916E008160809326
:1008C0006E0010928100809181008260809381008F
:1008D000809181008160809381008091800081609F
:1008E000809380008091B10084608093B1008091FA
:1008F000B00081608093B00080917A008460809322
:100900007A0080917A00826080937A0080917A00E8
:10091000816080937A0080917A00806880937A0069
:100920001092C10082E00E94CA0260E084E00E944E
:100930006B038DE091E00E94190260ED77E080E0AA
:1009400090E00E94950161E081E00E946B0389E1E3
:1009500091E00E941902C8E7D0E088E10E94BC0241
:1009600066E970E080E090E00E9495012197A9F788
:100970000E94C20260E081E00E946B038BE291E082
:100980000E94190260ED77E080E090E00E949501FE
:1009900061E080E00E946B038AE391E00E9419020B
:1009A000C8E7D0E088E10E94BC0264E670E080E025
:1009B00090E00E9495012197A9F70E94C20260E091
:1009C00081E00E946B0385E691E00E94190261E0DC
:1009D00080E00E946B0384E791E00E94190260EAC4
:1009E0007FE080E090E00E949501C8E7D0E088E1D8
:1009F0000E94BC0264E670E080E090E00E949501F5
:100A00002197A9F733ED232E30E3332E4FEA642EDE
:100A100040E0742E01E910E050E0452E50E0552EE4
:100A200088248A94982C54010E94C20260E081E0DC
:100A30000E946B0383E891E00E94190260E08FE05E
:100A40000E946B0386EC91E00E94190268EE73E04D
:100A500080E090E00E94950161E080E00E946B03DD
:100A600080E991E00E94190261E08FE00E946B032F
:100A700082EF91E00E94190268EE73E080E090E05E
:100A80000E94950160E080E10E942D0160E08EE00F
:100A90000E942D0160E08FE00E942D0161E08DE059
:100AA0000E942D0161E08CE00E942D0161E08BE04D
:100AB0000E942D0161E08AE00E942D0161E089E041
:100AC0000E942D0180E10E945E017C0160E08CE0CB
:100AD0000E946B03B701FF0C880B990B0E9437082B
:100AE00020E030E040EA50E40E94C30820E030EC0F
:100AF0004FE754E40E948D0720E030E040EA51E4E3
:100B00000E94C3080E94FF07CB010E9480038FE070
:100B10000E945E017C0161E08CE00E946B03B701E2
:100B2000FF0C880B990B0E94370820E030E040EA68
:100B300050E40E94C30820E030EC4FE754E40E94E8
:100B40008D0720E030E04AE754E40E94C30820E02B
:100B500030E040E251E40E948D070E94FF07CB0184
:100B60000E94800360ED77E080E090E00E949501B4
:100B700080E10E945E018FE00E945E018EE00E9493
:100B80005E01892B09F057C060E08DE00E94B5003E
:100B900060ED77E080E090E00E94950180E10E94A6
:100BA0005E01BC01990F880B990B0E94370820E069
:100BB00030E040EA50E40E94C30820E030EC4FE708
:100BC00054E40E948D0720E030E040EA51E40E94A6
:100BD000C3080E94FF076B018AE0C816D1040CF419
:100BE0005DC1809100018B3009F03CC0E8EBF0E082
:100BF000C491C7FDD4C061E08BE00E942D01CC23DD
:100C000009F49FC0C23009F0B0C08091B100876084
:100C10008093B1008CE08093B30080921402909294
:100C20001502A0921602B0921702809170008260A5
:100C300080937000B4C061E08DE00E94B5000E9416
:100C4000C20261E080E00E946B0387E991E00E94AC
:100C5000190260E081E00E946B0386EA91E00E9445
:100C6000190296CF8F3F09F09AC08BE08093000164
:100C7000E8EBF0E0C491CF3F09F491C0C13019F125
:100C800050F0C23009F43CC0C7FD89C061E08BE080
:100C90000E942D01B7CF14BC15BC84B5826084BD01
:100CA00085B5816085BDF3018491E82FF0E0EE0FFA
:100CB000FF1FE656FF4F85919491F8018491809330
:100CC0001302C0E098CF10928000109281008091B2
:100CD0008100886080938100809181008160809391
:100CE0008100F3018491E82FF0E0EE0FFF1FE6563C
:100CF000FF4F85919491F8018491809312027BCFEC
:100D00001092B0001092B1008091B0008260809388
:100D1000B0008091B10081608093B100F3018491B3
:100D2000E82FF0E0EE0FFF1FE656FF4F85919491FC
:100D30009093110280931002F801849180930F0226
:100D40005ACF85B5887F856085BD8CE087BD809250
:100D50001C0290921D02A0921E02B0921F0280916E
:100D60006E00826080936E001AC0C13009F08EC0A0
:100D700080918100887F8360809381003092890018
:100D8000209288008092180290921902A0921A0272
:100D9000B0921B0280916F00826080936F0061E0CF
:100DA0008BE00E94B50061E08AE00E94B50061E03E
:100DB00089E00E94B5000E94C20261E080E00E94CA
:100DC0006B0381EB91E00E94190260E081E00E94D8
:100DD0006B038FEC91E00E941902C6010E94800310
:100DE00085EC91E00E94190260ED77E080E090E0F0
:100DF0000E9495018FE00E945E01BC01990F880B53
:100E0000990B0E94370820E030E040EA50E40E944D
:100E1000C30820E030EC4FE754E40E948D0720E047
:100E200030E04AE754E40E94C30820E030E040E2AA
:100E300051E40E948D070E94FF076B016F3071051E
:100E40000CF040C061E08CE00E94B5000E94C2023C
:100E500061E080E00E946B0384ED91E00E94190242
:100E600060E081E00E946B0384EE91E00E94190231
:100E7000C6010E94800381EF91E00E941902411493
:100E8000510409F4D1CD0E940000CECDC23021F032
:100E9000C11185CF83ED5ACF83EDBDCE8BE00E948B
:100EA000010160E08AE00E94B50060E089E00E94F4
:100EB000B5000E94C20261E080E00E946B0388ECF2
:100EC00091E081CF60E08CE00E94B5000E94C202F8
:100ED00061E080E00E946B0384EF91E0BFCFE0E22D
:100EE000F2E01382128285E091E09183808387E0B3
:100EF00084838FEF858386E0868385E0878384E023
:100F0000808783E0818782E0828713861486158636
:100F10001686178681E00C94CA020E94A1070C94E1
:100F200089080E94820858F00E947B0840F029F44A
:100F30005F3F29F00C94720851110C94BD080C9479
:100F400078080E949A0868F39923B1F3552391F326
:100F5000951B550BBB27AA2762177307840738F028
:100F60009F5F5F4F220F331F441FAA1FA9F335D085
:100F70000E2E3AF0E0E832D091505040E695001C39
:100F8000CAF72BD0FE2F29D0660F771F881FBB1FF3
:100F9000261737074807AB07B0E809F0BB0B802DD1
:100FA000BF01FF2793585F4F3AF09E3F510578F0FD
:100FB0000C9472080C94BD085F3FE4F3983ED4F3A0
:100FC000869577956795B795F7959F5FC9F7880FD1
:100FD000911D9695879597F90895E1E0660F771F23
:100FE000881FBB1F621773078407BA0720F0621BB4
:100FF000730B840BBA0BEE1F88F7E09508950E94DF
:1010000006086894B1110C94BD0808950E94A208C6
:1010100088F09F5798F0B92F9927B751B0F0E1F0B9
:10102000660F771F881F991F1AF0BA95C9F714C069
:10103000B13091F00E94BC08B1E008950C94BC0856
:10104000672F782F8827B85F39F0B93FCCF38695A2
:1010500077956795B395D9F73EF4909580957095FF
:1010600061957F4F8F4F9F4F0895E89409C097FB7C
:101070003EF490958095709561957F4F8F4F9F4F6F
:101080009923A9F0F92F96E9BB279395F6958795B3
:1010900077956795B795F111F8CFFAF4BB0F11F476
:1010A00060FF1BC06F5F7F4F8F4F9F4F16C088231D
:1010B00011F096E911C0772321F09EE8872F762F53
:1010C00005C0662371F096E8862F70E060E02AF094
:1010D0009A95660F771F881FDAF7880F9695879580
:1010E00097F9089597F99F6780E870E060E00895A8
:1010F0009FEF80EC089500240A9416161706180630
:101100000906089500240A9412161306140605060B
:101110000895092E0394000C11F4882352F0BB0F9C
:1011200040F4BF2B11F460FF04C06F5F7F4F8F4FFF
:101130009F4F089557FD9058440F551F59F05F3F3A
:1011400071F04795880F97FB991F61F09F3F79F0E9
:1011500087950895121613061406551FF2CF46956B
:10116000F1DF08C0161617061806991FF1CF8695ED
:101170007105610508940895E894BB2766277727D1
:10118000CB0197F908950E94D6080C9489080E9413
:101190007B0838F00E94820820F0952311F00C940F
:1011A00072080C94780811240C94BD080E949A08C7
:1011B00070F3959FC1F3950F50E0551F629FF001AA
:1011C000729FBB27F00DB11D639FAA27F00DB11DC3
:1011D000AA1F649F6627B00DA11D661F829F22274C
:1011E000B00DA11D621F739FB00DA11D621F839FD3
:1011F000A00D611D221F749F3327A00D611D231FA9
:10120000849F600D211D822F762F6A2F11249F57F6
:1012100050409AF0F1F088234AF0EE0FFF1FBB1FF9
:10122000661F771F881F91505040A9F79E3F5105B8
:1012300080F00C9472080C94BD085F3FE4F3983E74
:10124000D4F3869577956795B795F795E7959F5F62
:10125000C1F7FE2B880F911D9695879597F90895F4
:10126000A1E21A2EAA1BBB1BFD010DC0AA1FBB1FAA
:10127000EE1FFF1FA217B307E407F50720F0A21B1C
:10128000B30BE40BF50B661F771F881F991F1A9489
:1012900069F760957095809590959B01AC01BD01B3
:1012A000CF010895EE0FFF1F0590F491E02D0994F2
:0412B000F894FFCFE0
:1012B400FF000000007A038800C801C701455354A9
:1012C400204D454B4E4553200020504645203A20A2
:1012D400534D41525420484F4D45007265616C692D
:1012E40073657220706172203A004E4F4D20507227
:1012F400656E6F6D20312026204E4F4D2050726553
:101304006E6F6D20322026204E4F4D205072656E38
:101314006F6D203300456E63616472657220706185
:1013240072203A0050722E204D45442046415454B8
:101334004148004E49564541552047415A3D2000F9
:1013440054454D503D200045434C41495241474589
:10135400204155544F004348414D425245203120CD
:101364000053544F52452847415A292D2D3E4D4193
:10137400524348450020250050415320444520470E
:10138400415A20004348415546464147452D2D3E8C
:10139400204F4E0054454D5045524154555245201E
:1013A40000204300434841554646414745202D2DE2
:0613B4003E204F464600FA
:00000001FF
