:100000000C945C000C946E000C946E000C946E00CA
:100010000C946E000C946E000C946E000C946E00A8
:100020000C946E000C946E000C946E000C946E0098
:100030000C946E000C946E000C946E000C946E0088
:100040000C94BC000C946E000C946E000C946E002A
:100050000C946E000C946E000C946E000C946E0068
:100060000C946E000C946E00000000080002010069
:100070000003040700000000000000000000000072
:10008000250028002B0000000000240027002A0083
:10009000040404040404040402020202020203032E
:1000A0000303030301020408102040800102040836
:1000B000102001020408102011241FBECFEFD8E049
:1000C000DEBFCDBF21E0A0E0B1E001C01D92A930AC
:1000D000B207E1F70E9406010C9477030C9400002C
:1000E00090E0FC01E859FF4F2491FC01EC55FF4FD3
:1000F0003491FC01E057FF4FE491EE23C9F0222335
:1001000039F0233001F1A8F4213019F1223029F11E
:10011000F0E0EE0FFF1FE458FF4FA591B4918FB7A9
:10012000F894EC91611126C030953E233C938FBF2B
:1001300008952730A9F02830C9F0243049F780917C
:1001400080008F7D03C0809180008F778093800036
:10015000DFCF84B58F7784BDDBCF84B58F7DFBCFB8
:100160008091B0008F778093B000D2CF8091B000A3
:100170008F7DF9CF3E2BDACF1F920F920FB60F92E1
:1001800011242F933F938F939F93AF93BF938091AD
:10019000050190910601A0910701B09108013091ED
:1001A000040123E0230F2D3758F50196A11DB11D41
:1001B000209304018093050190930601A093070109
:1001C000B09308018091000190910101A09102017A
:1001D000B09103010196A11DB11D80930001909380
:1001E0000101A0930201B0930301BF91AF919F91D0
:1001F0008F913F912F910F900FBE0F901F901895E8
:1002000026E8230F0296A11DB11DD2CF789484B5A4
:10021000826084BD84B5816084BD85B5826085BD02
:1002200085B5816085BD80916E00816080936E0090
:100230001092810080918100826080938100809182
:100240008100816080938100809180008160809333
:1002500080008091B10084608093B1008091B000F3
:1002600081608093B00080917A00846080937A00EE
:1002700080917A00826080937A0080917A00816018
:1002800080937A0080917A00806880937A0010923F
:10029000C100C3EBD0E00FE910E060EBE62E60E0B8
:1002A000F62E7CE9C72E70E0D72EE1E49E2EF0E01A
:1002B000AF2EF0E0BF2EFE014491F8018491882317
:1002C000C9F090E0880F991FFC01EA57FF4FA591F4
:1002D000B491FC01E458FF4F259134915FB7F89435
:1002E0009C91842F809598239C93F9019081892378
:1002F00080835FBFF7012491F6018491882399F0F0
:1003000090E0880F991FFC01EA57FF4FA591B49127
:10031000FC01E458FF4F859194918FB7F8949C911C
:10032000292B2C938FBF90927C0080917A0080645F
:1003300080937A0080917A0086FDFCCF80917800CE
:1003400060917900762F682F072E000C880B990B8F
:100350000E947E0220E030E040EA50E40E940A035E
:1003600020E030EC4FE754E40E94D40120E030E07C
:100370004AE754E40E940A0320E030E040E251E4FE
:100380000E94D4010E9446026F3071055CF461E066
:100390008CE00E947000A114B10409F48CCF0E947B
:1003A000000089CF60E0F4CF0E94E8010C94D002F5
:1003B0000E94C90258F00E94C20240F029F45F3F37
:1003C00029F00C94B90251110C9404030C94BF024F
:1003D0000E94E10268F39923B1F3552391F3951B31
:1003E000550BBB27AA2762177307840738F09F5F56
:1003F0005F4F220F331F441FAA1FA9F335D00E2EC3
:100400003AF0E0E832D091505040E695001CCAF72F
:100410002BD0FE2F29D0660F771F881FBB1F2617F2
:1004200037074807AB07B0E809F0BB0B802DBF01C9
:10043000FF2793585F4F3AF09E3F510578F00C9498
:10044000B9020C9404035F3FE4F3983ED4F386951D
:1004500077956795B795F7959F5FC9F7880F911DB9
:100460009695879597F90895E1E0660F771F881FA5
:10047000BB1F621773078407BA0720F0621B730B58
:10048000840BBA0BEE1F88F7E09508950E944D0289
:100490006894B1110C94040308950E94E90288F055
:1004A0009F5798F0B92F9927B751B0F0E1F0660F38
:1004B000771F881F991F1AF0BA95C9F714C0B13079
:1004C00091F00E940303B1E008950C940303672F99
:1004D000782F8827B85F39F0B93FCCF386957795A8
:1004E0006795B395D9F73EF4909580957095619591
:1004F0007F4F8F4F9F4F0895E89409C097FB3EF4BC
:1005000090958095709561957F4F8F4F9F4F992360
:10051000A9F0F92F96E9BB279395F69587957795DE
:100520006795B795F111F8CFFAF4BB0F11F460FF9E
:100530001BC06F5F7F4F8F4F9F4F16C0882311F0F6
:1005400096E911C0772321F09EE8872F762F05C00A
:10055000662371F096E8862F70E060E02AF09A95A5
:10056000660F771F881FDAF7880F9695879597F99A
:10057000089597F99F6780E870E060E008959FEF25
:1005800080EC089500240A9416161706180609062A
:10059000089500240A9412161306140605060895F9
:1005A000092E0394000C11F4882352F0BB0F40F481
:1005B000BF2B11F460FF04C06F5F7F4F8F4F9F4FC1
:1005C000089557FD9058440F551F59F05F3F71F043
:1005D0004795880F97FB991F61F09F3F79F08795AA
:1005E0000895121613061406551FF2CF4695F1DF33
:1005F00008C0161617061806991FF1CF86957105C3
:10060000610508940895E894BB2766277727CB01F6
:1006100097F908950E941D030C94D0020E94C20213
:1006200038F00E94C90220F0952311F00C94B90211
:100630000C94BF0211240C9404030E94E10270F395
:10064000959FC1F3950F50E0551F629FF001729F77
:10065000BB27F00DB11D639FAA27F00DB11DAA1F86
:10066000649F6627B00DA11D661F829F2227B00DD3
:10067000A11D621F739FB00DA11D621F839FA00D5E
:10068000611D221F749F3327A00D611D231F849FAE
:10069000600D211D822F762F6A2F11249F57504005
:1006A0009AF0F1F088234AF0EE0FFF1FBB1F661F80
:1006B000771F881F91505040A9F79E3F510580F049
:1006C0000C94B9020C9404035F3FE4F3983ED4F316
:1006D000869577956795B795F795E7959F5FC1F7ED
:1006E000FE2B880F911D9695879597F90895F8949C
:0206F000FFCF3A
:00000001FF
