:100000000C945D000C947A000C947A000C947A00A5
:100010000C947A000C947A000C947A000C946F0182
:100020000C947A000C947A000C947A000C947A0068
:100030000C947A000C947A000C947A000C947A0058
:100040000C9425010C947A000C947A000C947A009C
:100050000C947A000C947A000C947A000C947A0038
:100060000C947A000C947A00000000002400270011
:100070002A0000000008000201000003040700003D
:10008000000000000000010204081020408001026E
:1000900004081020010204081020000000002500C0
:1000A00028002B00040404040404040402020202D5
:1000B0000202030303030303020011241FBECFEF58
:1000C000D8E0DEBFCDBF11E0A0E0B1E0E0EEF9E0A6
:1000D00002C005900D92A230B107D9F721E0A2E04D
:1000E000B1E001C01D92AC31B207E1F70E94CB0133
:1000F0000C94EE040C94000090E0FC01EE58FF4FCD
:100100002491FC01EA57FF4F3491FC01EC55FF4F5D
:10011000E491EE23C9F0222339F0233001F1A8F451
:10012000213019F1223029F1F0E0EE0FFF1FE656E1
:10013000FF4FA591B4918FB7F894EC91611126C04F
:1001400030953E233C938FBF08952730A9F0283087
:10015000C9F0243049F7809180008F7D03C08091E1
:1001600080008F7780938000DFCF84B58F7784BD48
:10017000DBCF84B58F7DFBCF8091B0008F778093EC
:10018000B000D2CF8091B0008F7DF9CF3E2BDACF77
:100190009091000189130BC0E8EBF0E0E4919FEF30
:1001A00090930001E13049F028F0E23061F060E026
:1001B0000C947C0010926E00FACF90916F009D7F9E
:1001C00090936F00F4CF909170009D7F909370009A
:1001D00091E09093B0009091B100987F94609093DB
:1001E000B1001092B300E3CFCF93DF9390E0FC0116
:1001F000EA57FF4F24918C559F4FFC01849188232F
:10020000D1F090E0880F991FFC01E859FF4FA591AC
:10021000B491FC01E656FF4FC591D49161110EC017
:100220009FB7F8948C91E22FE0958E238C932881D0
:10023000E223E8839FBFDF91CF9108958FB7F894B1
:10024000EC91E22BEC938FBFF6CF1F920F920FB67B
:100250000F9211242F933F938F939F93AF93BF934C
:100260008091180190911901A0911A01B0911B0180
:100270003091170123E0230F2D3758F50196A11D6A
:10028000B11D209317018093180190931901A09339
:100290001A01B0931B018091130190911401A09158
:1002A0001501B09116010196A11DB11D8093130196
:1002B00090931401A0931501B0931601BF91AF91D3
:1002C0009F918F913F912F910F900FBE0F901F9094
:1002D000189526E8230F0296A11DB11DD2CF1F92BB
:1002E0000F920FB60F9211242F933F934F935F936A
:1002F0006F937F938F939F93AF93BF93EF93FF93EE
:100300008091070190910801A0910901B0910A0123
:10031000892B8A2B8B2BD1F190910201E091030163
:10032000F091040180818927808380910701909159
:100330000801A0910901B0910A01181619061A06C0
:100340001B069CF48091070190910801A09109017E
:10035000B0910A010197A109B10980930701909317
:100360000801A0930901B0930A01FF91EF91BF9199
:10037000AF919F918F917F916F915F914F913F913D
:100380002F910F900FBE0F901F9018958091000134
:100390000E94C800EACF789484B5826084BD84B599
:1003A000816084BD85B5826085BD85B5816085BD70
:1003B00080916E00816080936E0010928100809128
:1003C00081008260809381008091810081608093B0
:1003D0008100809180008160809380008091B100D5
:1003E00084608093B1008091B00081608093B00000
:1003F00080917A00846080937A0080917A00826094
:1004000080937A0080917A00816080937A00809155
:100410007A00806880937A001092C10033ED832EB9
:1004200030E3932E48EBC42E40E0D42E0FEA10E0C8
:1004300051E9E52E50E0F52E60E0A62E60E0B62EE4
:1004400044244A94542C3201D2E460E080E10E94BA
:10045000F40061E08BE00E94F40061E08AE00E9419
:10046000F40061E089E00E94F400D0937C00809168
:100470007A00806480937A0080917A0086FDFCCFB8
:100480008091780060917900762F682F072E000CFC
:10049000880B990B0E94F50320E030E040EA50E41D
:1004A0000E94810420E030EC4FE754E40E944B03AB
:1004B00020E030E040EA51E40E9481040E94BD0344
:1004C0006A3071050CF4DEC0809100018B3021F59B
:1004D000F601C491C7FDBBC061E08BE00E94F4004F
:1004E000CC2309F487C0C23009F098C08091B100D4
:1004F00087608093B1008CE08093B3004092070145
:10050000509208016092090170920A018091700076
:100510008260809370009BC08F3F09F098C08BE091
:1005200080930001F601C491CF3F09F490C0C1301F
:1005300019F150F0C23009F43CC0C7FD88C061E039
:100540008BE00E94F400CFCF14BC15BC84B5826050
:1005500084BD85B5816085BDF8018491E82FF0E008
:10056000EE0FFF1FE656FF4F85919491F70184919E
:1005700080930601C0E0B0CF1092800010928100FD
:1005800080918100886080938100809181008160EA
:1005900080938100F8018491E82FF0E0EE0FFF1FB7
:1005A000E656FF4F85919491F70184918093050160
:1005B00093CF1092B0001092B1008091B000826091
:1005C0008093B0008091B10081608093B100F80108
:1005D0008491E82FF0E0EE0FFF1FE656FF4F859164
:1005E00094919093040180930301F7018491809387
:1005F000020172CF85B5887F856085BD8CE087BD9F
:1006000040920F01509210016092110170921201FC
:1006100080916E00826080936E0019C0C13051F5E8
:1006200080918100887F836080938100909289000F
:100630008092880040920B0150920C0160920D0153
:1006400070920E0180916F00826080936F0061E074
:100650008BE00E947C0061E08AE00E947C0061E007
:1006600089E00E947C00A114B10409F4EECE0E943E
:100670000000EACEC23021F0C111E9CF83EDBFCF37
:1006800083ED3ACF8BE00E94C80060E08AE00E94D0
:100690007C0060E0E5CF0E945F030C9447040E9459
:1006A000400458F00E94390440F029F45F3F29F0DB
:1006B0000C94300451110C947B040C9436040E9469
:1006C000580468F39923B1F3552391F3951B550B07
:1006D000BB27AA2762177307840738F09F5F5F4F15
:1006E000220F331F441FAA1FA9F335D00E2E3AF054
:1006F000E0E832D091505040E695001CCAF72BD06C
:10070000FE2F29D0660F771F881FBB1F26173707BC
:100710004807AB07B0E809F0BB0B802DBF01FF27EE
:1007200093585F4F3AF09E3F510578F00C94300497
:100730000C947B045F3FE4F3983ED4F38695779561
:100740006795B795F7959F5FC9F7880F911D9695A7
:10075000879597F90895E1E0660F771F881FBB1F03
:10076000621773078407BA0720F0621B730B840BB0
:10077000BA0BEE1F88F7E09508950E94C4036894B1
:10078000B1110C947B0408950E94600488F09F5777
:1007900098F0B92F9927B751B0F0E1F0660F771FA5
:1007A000881F991F1AF0BA95C9F714C0B13091F09B
:1007B0000E947A04B1E008950C947A04672F782F90
:1007C0008827B85F39F0B93FCCF386957795679560
:1007D000B395D9F73EF490958095709561957F4FCC
:1007E0008F4F9F4F0895E89409C097FB3EF4909572
:1007F0008095709561957F4F8F4F9F4F9923A9F0FA
:10080000F92F96E9BB279395F69587957795679588
:10081000B795F111F8CFFAF4BB0F11F460FF1BC0CC
:100820006F5F7F4F8F4F9F4F16C0882311F096E95F
:1008300011C0772321F09EE8872F762F05C066230D
:1008400071F096E8862F70E060E02AF09A95660FC6
:10085000771F881FDAF7880F9695879597F908957F
:1008600097F99F6780E870E060E008959FEF80EC63
:10087000089500240A941616170618060906089506
:1008800000240A9412161306140605060895092E6C
:100890000394000C11F4882352F0BB0F40F4BF2BDB
:1008A00011F460FF04C06F5F7F4F8F4F9F4F08951B
:1008B00057FD9058440F551F59F05F3F71F0479511
:1008C000880F97FB991F61F09F3F79F087950895F6
:1008D000121613061406551FF2CF4695F1DF08C015
:1008E000161617061806991FF1CF86957105610532
:1008F00008940895E894BB2766277727CB0197F9DA
:1009000008950E9494040C9447040E94390438F01E
:100910000E94400420F0952311F00C9430040C94B4
:10092000360411240C947B040E94580470F3959FA4
:10093000C1F3950F50E0551F629FF001729FBB27D6
:10094000F00DB11D639FAA27F00DB11DAA1F649F72
:100950006627B00DA11D661F829F2227B00DA11D25
:10096000621F739FB00DA11D621F839FA00D611DAB
:10097000221F749F3327A00D611D231F849F600DCC
:10098000211D822F762F6A2F11249F5750409AF0F5
:10099000F1F088234AF0EE0FFF1FBB1F661F771F81
:1009A000881F91505040A9F79E3F510580F00C944C
:1009B00030040C947B045F3FE4F3983ED4F38695B7
:1009C00077956795B795F795E7959F5FC1F7FE2BEC
:1009D000880F911D9695879597F90895F894FFCF04
:0209E000FF0016
:00000001FF
